:020000040800F2
:1000000000500020610D0008550C00085D0C000830
:10001000650C00086D0C0008750C0008000000005D
:100020000000000000000000000000007D0C00083F
:10003000890C000800000000950C0008A10C0008C5
:10004000A90D0008A90D0008A90D0008A90D0008B8
:10005000A90D0008A90D0008A90D0008A90D0008A8
:10006000A90D0008A90D0008A90D0008A90D000898
:10007000A90D0008A90D0008A90D0008A90D000888
:10008000A90D0008A90D0008A90D0008AD0C000875
:10009000C10C0008D50C0008A90D0008A90D000826
:1000A000A90D0008A90D0008A90D0008A90D000858
:1000B000A90D0008A90D0008A90D0008A90D000848
:1000C000A90D0008A90D0008A90D0008A90D000838
:1000D000A90D0008A90D0008A90D0008A90D000828
:1000E000A90D0008A90D0008A90D000800000000D6
:1000F0000000000000000000000000000000000000
:0C01000000000000000000005FF808F1A3
:10010C0010B5054C237833B9044B13B10448AFF345
:10011C0000800123237010BD64000020000000004B
:10012C00043C000808B5034B1BB103490348AFF36B
:10013C00008008BD0000000068000020043C00089E
:10014C00034613F8012B002AFBD1181A013870470B
:10015C0080B582B000AF44F62063012278214C4870
:10016C0002F002F90346002B01D000238BE040F68D
:10017C00C4137B6002E07B68013B7B607B68002BD7
:10018C00F9D1AE220021782000F062FAB0220021D1
:10019C00782000F05DFA81220021782000F058FAD6
:1001AC00FF220021782000F053FAA12200217820B0
:1001BC0000F04EFAA6220021782000F049FAA8227D
:1001CC000021782000F044FA3F220021782000F032
:1001DC003FFAAD220021782000F03AFA8B22002160
:1001EC00782000F035FA32220021782000F030FA25
:1001FC00C8220021782000F02BFAD322002178208D
:10020C0000F026FA00220021782000F021FAD522F5
:10021C000021782000F01CFA80220021782000F0C8
:10022C0017FAD9220021782000F012FA1F2200219F
:10023C00782000F00DFADA220021782000F008FA7C
:10024C0012220021782000F003FADB220021782012
:10025C0000F0FEF940220021782000F0F9F9AF22DD
:10026C000021782000F0F4F9002000F047F800F0AD
:10027C0013F8084B00221A80064B00225A80054BBB
:10028C0001225A71012318460837BD4680BD00BFB4
:10029C00D0040020A004002080B582B000AF002361
:1002AC00FB7121E0FB79503BDBB21A460021782030
:1002BC0000F0CEF900220021782000F0C9F91022BC
:1002CC000021782000F0C4F9FA7913465B0113443D
:1002DC009B001A46084B1A4484234021782000F0D6
:1002EC0051F9FB790133FB71FB79072BDAD900BF8C
:1002FC0000BF0837BD4680BD8000002080B582B0AD
:10030C0000AF0346FB71FB79002B01D1002300E009
:10031C00FF234FF484621946034802F0DDFF00BF4F
:10032C000837BD4680BD00BF8000002090B482B06D
:10033C0000AF0346FB800B46BB801346FB70FB886B
:10034C00832B54D8BB883F2B51D82B4B1B79002BBC
:10035C0006D0FB78002B0CBF01230023DBB2FB7013
:10036C00FB78012B20D1FA88BB88DB0898B20146B8
:10037C000B465B010B449B001344204AD35C5AB2DE
:10038C00BB8803F00703012101FA03F35BB21343AB
:10039C005CB2FA8801460B465B010B449B0013448C
:1003AC00E1B2164AD15423E0FA88BB88DB0898B234
:1003BC0001460B465B010B449B0013440F4AD35C74
:1003CC005AB2BB8803F00703012101FA03F35BB2B5
:1003DC00DB435BB213405CB2FA8801460B465B010F
:1003EC000B449B001344E1B2044AD15400E000BF1B
:1003FC000837BD4690BC7047A00400208000002048
:10040C0080B483B000AF03460A46FB801346BB8022
:10041C00054AFB881380044ABB88538000BF0C3705
:10042C00BD4680BC704700BFA004002080B586B0DC
:10043C0000AF03463960FB711346BB71394B1B8807
:10044C001A463B681B781344832B07DC354B5B88BF
:10045C001A463B685B7813443F2B01DD00235DE0BB
:10046C0000237B614BE03B685A68FB79203B396881
:10047C00497801FB03F319467B690B445B00134479
:10048C001B88FB6000233B6130E0FA683B6902FA91
:10049C0003F303F40043002B10D0224B1A883B6962
:1004AC009BB2134498B21F4B5A887B699BB213447E
:1004BC009BB2BA791946FFF739FF14E0194B1A8829
:1004CC003B699BB2134498B2164B5A887B699BB21A
:1004DC00134499B2BB79002B0CBF01230023DBB270
:1004EC001A46FFF723FF3B6901333B613B681B78DE
:1004FC001A463B699342C8D37B6901337B613B68E5
:10050C005B781A467B699342ADD3064B1B883A68DD
:10051C00127813449AB2034B1A80FB791846183799
:10052C00BD4680BDA004002080B584B000AFF8604B
:10053C00B9601346FB7112E0FB681B78FA79B96855
:10054C001846FFF773FF03461A46FB681B789A425E
:10055C0002D0FB681B7808E0FB680133FB60FB688A
:10056C001B78002BE8D1FB681B7818461037BD466A
:10057C0080BD80B500AF0020FFF7C0FEFFF78CFEFA
:10058C0000BF80BD90B5C7B002AF0446084607F562
:10059C008871A1F588710A60194607F58873A3F272
:1005AC00091322461A7007F58873A3F58573024662
:1005BC001A7007F58873A3F586730A461A8007F537
:1005CC008873A3F5827307F58872A2F58572127889
:1005DC001A70002387F80F3115E097F80F3107F5E3
:1005EC008872A2F5887212681A4497F80F31013399
:1005FC00117807F58872A2F58272D15497F80F31F1
:10060C00013387F80F3197F80F319BB207F58872D9
:10061C00A2F5867212889A42DFD807F58873A3F286
:10062C0009131B7899B207F58873A3F586731B8899
:10063C0001339BB207F10C020A200090034801F031
:10064C0095FD00BF07F58A77BD4690BDD00400200C
:10065C0080B586B002AF0346FB710B46BB711346E7
:10066C007B71BB793B737B797B73FB7999B207F117
:10067C000C020A2300930223034801F077FD00BF0C
:10068C001037BD4680BD00BFD004002080B582B0BD
:10069C0000AF78600D4B0E4A0021786800F00EFE1A
:1006AC000346002B0ED1094B1B781A46094B1A80B6
:1006BC00064B5B781A46084B1A80044B9B781A46FB
:1006CC00064B1A8000BF0837BD4680BD4005002090
:1006DC0024050020480500204A0500204C05002078
:1006EC0080B58CB000AF00F05BFB00F0BDF800F003
:1006FC0065F900F0FFF800F033F9FFF729FD01234D
:10070C00BB620C23FB610023BB614FF48043BB60D5
:10071C000023FB604FF480433B6100237B6100238B
:10072C003B6201237B620D23FB6207F10803194630
:10073C003F4800F0B6FC3E4800F07CFD02213C48EE
:10074C0000F0DDFE0346002B01D000F08FF9FFF71F
:10075C0010FF384B1B883846374A082102F088FDB9
:10076C0000210220FFF74CFE012234493448FFF7E8
:10077C00DBFE00212D20FFF743FE3B4601222F49D3
:10078C001846FFF7D1FE3B461846FFF7D9FC034647
:10079C009BB21A46D200D31A9BB235339BB20021BE
:1007AC001846FFF72DFE012224492648FFF7BCFE10
:1007BC0014210220FFF724FE012220492248FFF7D2
:1007CC00B3FE14212B20FFF71BFE204B1B88002BA4
:1007DC0005D1012219491E48FFF7A6FE04E00122AB
:1007EC0016491C48FFF7A0FE28210220FFF708FE3F
:1007FC00012212491848FFF797FE28214920FFF7DC
:10080C00FFFD164B1B88002B05D101220B49144808
:10081C00FFF78AFE04E0012208491248FFF784FE24
:10082C00FFF73AFD4FF47A7000F01CFB8FE700BF26
:10083C00A8040020480500201C3C000800000020F3
:10084C00203C0008283C00082C3C00084A050020ED
:10085C00343C00083C3C0008403C00084C0500209F
:10086C004C3C0008543C000880B590B000AF07F138
:10087C00180328220021184602F02EFD3B1D0022F1
:10088C001A605A609A60DA601A610123BB614FF4F6
:10089C008033FB6100233B620123BB6202237B6339
:1008AC004FF48033BB634FF4E013FB6307F1180381
:1008BC00184602F0E1F80346002B01D000F0D6F800
:1008CC000F237B600223BB600023FB604FF480632B
:1008DC003B6100237B613B1D0221184602F04EFB5D
:1008EC000346002B01D000F0C1F800BF4037BD46D5
:1008FC0080BD000080B500AF174B184A1A60164B2C
:10090C0004225A60144B00229A60134B0022DA60C6
:10091C00114B4FF460221A610F4B4FF480125A6145
:10092C000D4B00221A760C4B00225A760A4B0022F1
:10093C009A76094B0022DA76074B00221A77064B7F
:10094C0000225A77044800F0B1FA0346002B01D07C
:10095C0000F08CF800BF80BDA804002000640040AB
:10096C0080B500AF124B134A1A60114B124A5A60F1
:10097C000F4B00229A600E4B0022DA600C4B4FF4A6
:10098C0080421A610A4B00225A61094B00229A617B
:10099C00074B0022DA61064B00221A62044801F070
:1009AC00A1FA0346002B01D000F060F800BF80BD17
:1009BC00D004002000540040801A060080B588B096
:1009CC0000AF07F1100300221A605A609A60DA60D7
:1009DC00244B9B69234A43F010039361214B9B6981
:1009EC0003F01003FB60FB681E4B9B691D4A43F030
:1009FC00200393611B4B9B6903F02003BB60BB6816
:100A0C00184B9B69174A43F004039361154B9B6980
:100A1C0003F004037B607B68124B9B69114A43F023
:100A2C00080393610F4B9B6903F008033B603B6821
:100A3C0000224FF400510C4801F03CFA4FF40053E3
:100A4C003B6101237B610023BB610223FB6107F146
:100A5C0010031946044801F0A9F800BF2037BD4621
:100A6C0080BD00BF001002400010014080B400AFF8
:100A7C0072B600BF00BFFDE780B485B000AF154B68
:100A8C009B69144A43F001039361124B9B6903F079
:100A9C000103BB60BB680F4BDB690E4A43F080530C
:100AAC00D3610C4BDB6903F080537B607B680A4B92
:100ABC005B68FB60FB6823F0E063FB60FB6843F062
:100ACC000073FB60044AFB68536000BF1437BD46DB
:100ADC0080BC7047001002400000014080B58AB015
:100AEC0000AF786007F1140300221A605A609A6014
:100AFC00DA607B681B68314A93425BD1304BDB690F
:100B0C002F4A43F00073D3612D4BDB6903F0007364
:100B1C003B613B692A4B9B69294A43F0080393616B
:100B2C00274B9B6903F00803FB60FB684FF4807351
:100B3C007B610023BB610123FB6107F114031946A0
:100B4C00204801F033F84FF400737B610223BB6142
:100B5C0003233B6207F1140319461A4801F026F8E7
:100B6C00194B5B687B627B6A23F4C0437B627B6AB4
:100B7C0043F0E0637B627B6A43F480437B62124AFE
:100B8C007B6A536000220021132000F0D8FF132051
:100B9C0000F0F1FF00220021142000F0D0FF1420FF
:100BAC0000F0E9FF00220021152000F0C8FF1520FD
:100BBC0000F0E1FF00BF2837BD4680BD0064004057
:100BCC0000100240000C01400000014080B588B0CC
:100BDC0000AF786007F1100300221A605A609A6027
:100BEC00DA607B681B68154A934223D1144B9B69CE
:100BFC00134A43F008039361114B9B6903F00803FC
:100C0C00FB60FB68C0233B6112237B610323FB6108
:100C1C0007F1100319460B4800F0C8FF084BDB69BD
:100C2C00074A43F40013D361054BDB6903F400134B
:100C3C00BB60BB6800BF2037BD4680BD0054004080
:100C4C0000100240000C014080B400AF00BFFDE773
:100C5C0080B400AF00BFFDE780B400AF00BFFDE77C
:100C6C0080B400AF00BFFDE780B400AF00BFFDE76C
:100C7C0080B400AF00BFBD4680BC704780B400AFED
:100C8C0000BFBD4680BC704780B400AF00BFBD46FE
:100C9C0080BC704780B500AF00F0C8F800BF80BDC5
:100CAC0080B500AF024800F04FFC00BF80BD00BF14
:100CBC00A804002080B500AF024800F045FC00BF3E
:100CCC0080BD00BFA804002080B500AF024800F032
:100CDC003BFC00BF80BD00BFA804002080B586B0DF
:100CEC0000AF7860144A154BD31A7B617B693B616A
:100CFC00134B1B68002B02D1114B124A1A60104B7C
:100D0C001A687B6813443A699A4207D202F0ECFAEB
:100D1C0003460C221A604FF0FF3309E0084B1B68A6
:100D2C00FB60074B1A687B681344054A1360FB6829
:100D3C0018461837BD4680BD005000200004000046
:100D4C0050050020A006002080B400AF00BFBD46B7
:100D5C0080BC7047FFF7F8FF0B480C490C4A002386
:100D6C0002E0D458C4500433C4188C42F9D3094A55
:100D7C00094C002301E013600432A242FBD302F0C1
:100D8C00B9FAFFF7ADFC70470000002064000020AA
:100D9C003C44000864000020A0060020FEE7000090
:100DAC0080B500AF084B1B68074A43F01003136073
:100DBC00032000F0B9FE0F2000F008F8FFF75CFEEE
:100DCC000023184680BD00BF0020024080B582B0D1
:100DDC0000AF7860124B1A68124B1B7819464FF40F
:100DEC007A73B3FBF1F3B2FBF3F3184600F0D1FEC8
:100DFC000346002B01D001230EE07B680F2B0AD891
:100E0C00002279684FF0FF3000F099FE064A7B68AB
:100E1C001360002300E0012318460837BD4680BD4F
:100E2C0008000020100000200C00002080B400AF4F
:100E3C00054B1B781A46054B1B681344034A136079
:100E4C0000BFBD4680BC7047100000205405002038
:100E5C0080B400AF024B1B681846BD4680BC70477F
:100E6C005405002080B584B000AF7860FFF7F0FF28
:100E7C00B8607B68FB60FB68B3F1FF3F05D00A4BA1
:100E8C001B781A46FB681344FB6000BFFFF7E0FFBA
:100E9C000246BB68D31AFA689A42F7D800BF00BF63
:100EAC001037BD4680BD00BF1000002080B584B057
:100EBC0000AF78607B68002B01D10123EDE07B68EB
:100ECC0093F82030DBB2002B02D17868FFF706FED6
:100EDC007B681B681A687B681B6842F001021A6009
:100EEC00FFF7B6FFF86012E0FFF7B2FF0246FB68AF
:100EFC00D31A0A2B0BD97B685B6A43F400327B68EC
:100F0C005A627B68052283F820200123C5E07B68A8
:100F1C001B685B6803F00103002BE5D07B681B6842
:100F2C001A687B681B6822F002021A60FFF790FFB8
:100F3C00F86012E0FFF78CFF0246FB68D31A0A2B0D
:100F4C000BD97B685B6A43F400327B685A627B681E
:100F5C00052283F8202001239FE07B681B685B68D7
:100F6C0003F00203002BE5D17B681B7E012B08D11B
:100F7C007B681B681A687B681B6842F080021A60E9
:100F8C0007E07B681B681A687B681B6822F080028C
:100F9C001A607B685B7E012B08D17B681B681A6822
:100FAC007B681B6842F040021A6007E07B681B6894
:100FBC001A687B681B6822F040021A607B689B7E73
:100FCC00012B08D17B681B681A687B681B6842F090
:100FDC0020021A6007E07B681B681A687B681B6834
:100FEC0022F020021A607B68DB7E012B08D17B6823
:100FFC001B681A687B681B6822F010021A6007E0F5
:10100C007B681B681A687B681B6842F010021A60C8
:10101C007B681B7F012B08D17B681B681A687B6877
:10102C001B6842F008021A6007E07B681B681A68AC
:10103C007B681B6822F008021A607B685B7F012BBF
:10104C0008D17B681B681A687B681B6842F0040235
:10105C001A6007E07B681B681A687B681B6822F0C3
:10106C0004021A607B689A687B68DB681A437B68A9
:10107C001B691A437B685B6942EA03017B685B6806
:10108C005A1E7B681B680A43DA617B6800225A622D
:10109C007B68012283F82020002318461037BD46B8
:1010AC0080BD80B487B000AF786039607B681B6806
:1010BC007B617B6893F82030FB74FB7C012B03D0A5
:1010CC00FB7C022B40F0AA807B69D3F8003243F002
:1010DC0001027B69C3F800223B685B6903F01F03C4
:1010EC00012202FA03F3FB607B69D3F81C22FB6834
:1010FC00DB431A407B69C3F81C223B68DB69002B7D
:10110C0023D17B69D3F80C22FB68DB431A407B6943
:10111C00C3F80C223B68DB6819043B685B689BB224
:10112C003A68526919437B69483243F832103B687C
:10113C009B6819043B681B689AB23B685B690A435D
:10114C0079694833DB000B445A603B68DB69012B3F
:10115C0022D17B69D3F80C22FB681A437B69C3F854
:10116C000C223B681B6819043B685B689BB23A68AD
:10117C00526919437B69483243F832103B689B68CB
:10118C0019043B68DB689AB23B685B690A4379696E
:10119C004833DB000B445A603B689B69002B09D138
:1011AC007B69D3F80422FB68DB431A407B69C3F8E4
:1011BC00042207E07B69D3F80422FB681A437B699D
:1011CC00C3F804223B681B69002B09D17B69D3F857
:1011DC001422FB68DB431A407B69C3F8142207E036
:1011EC007B69D3F81422FB681A437B69C3F8142279
:1011FC003B681B6A012B07D17B69D3F81C22FB6867
:10120C001A437B69C3F81C227B69D3F8003223F0A4
:10121C0001027B69C3F80022002306E07B685B6A4D
:10122C0043F480227B685A62012318461C37BD4662
:10123C0080BC704780B584B000AF78607B6893F851
:10124C002030DBB2012B2ED17B68022283F82020C8
:10125C007B681B681A687B681B6822F001021A60A5
:10126C00FFF7F6FDF86012E0FFF7F2FD0246FB68AF
:10127C00D31A0A2B0BD97B685B6A43F400327B6868
:10128C005A627B68052283F82020012312E07B68D8
:10129C001B685B6803F00103002BE5D17B6800221F
:1012AC005A62002306E07B685B6A43F400227B6889
:1012BC005A62012318461037BD4680BD80B487B0F2
:1012CC0000AFF860B9607A603B60FB6893F820303F
:1012DC00FB75FB7D012B03D0FB7D022B40F00381C2
:1012EC00BB68002B0ED1FB681B68DB6803F00303A3
:1012FC00002B16D1FB685B6A43F40012FB685A6240
:10130C000123F7E0FB681B681B6903F00303002B48
:10131C0007D1FB685B6A43F40012FB685A62012335
:10132C00E8E0FB681A68BB681B331B0113441B689D
:10133C0003F004027B689A607B689B68002B0CD1DD
:10134C00FB681A68BB681B331B0113441B685B0DDD
:10135C00C3F30A027B681A600BE0FB681A68BB686F
:10136C001B331B0113441B68DB0823F060427B68B2
:10137C005A60FB681A68BB681B331B0113441B685B
:10138C0003F002027B68DA60FB681A68BB681B33E7
:10139C001B01134404331B6803F00803002B03D018
:1013AC007B6808221A610BE0FB681A68BB681B3368
:1013BC001B01134404331B6803F00F027B681A6192
:1013CC00FB681A68BB681B331B01134404331B688E
:1013DC001B0ADAB27B689A61FB681A68BB681B331C
:1013EC001B01134404331B681B0C9AB27B685A61B3
:1013FC00FB681A68BB681B01134403F5DC731B689C
:10140C00DAB23B681A70FB681A68BB681B0113449C
:10141C0003F5DC731B681A0A3B680133D2B21A70ED
:10142C00FB681A68BB681B01134403F5DC731B686B
:10143C001A0C3B680233D2B21A70FB681A68BB688C
:10144C001B01134403F5DC731B681A0E3B68033352
:10145C00D2B21A70FB681A68BB681B01134403F5FF
:10146C00DE731A683B680433D2B21A70FB681A68D0
:10147C00BB681B01134403F5DE731B681A0A3B6837
:10148C000533D2B21A70FB681A68BB681B0113448F
:10149C0003F5DE731B681A0C3B680633D2B21A7064
:1014AC00FB681A68BB681B01134403F5DE731B68E9
:1014BC001A0E3B680733D2B21A70BB68002B08D1E6
:1014CC00FB681B68DA68FB681B6842F02002DA6074
:1014DC0007E0FB681B681A69FB681B6842F0200276
:1014EC001A61002306E0FB685B6A43F48022FB6808
:1014FC005A62012318461C37BD4680BC704780B425
:10150C0085B000AF786039607B6893F82030FB734E
:10151C00FB7B012B02D0FB7B022B09D17B681B6868
:10152C0059697B681B683A680A435A61002306E0D4
:10153C007B685B6A43F480227B685A6201231846FD
:10154C001437BD4680BC704780B58AB000AF786058
:10155C0000237B627B681B685B693B627B681B6852
:10156C005B68FB617B681B689B68BB617B681B6865
:10157C00DB687B617B681B681B693B617B681B6854
:10158C009B69FB603B6A03F00103002B7CD0BB69B9
:10159C0003F00103002B23D07B681B6801229A60A7
:1015AC00BB6903F00203002B03D0786800F083F9C9
:1015BC0016E0BB6903F00403002B04D07B6A43F4F0
:1015CC0000637B620CE0BB6903F00803002B04D0C2
:1015DC007B6A43F480537B6202E0786800F086F902
:1015EC00BB6903F48073002B24D07B681B684FF419
:1015FC0080729A60BB6903F40073002B03D0786887
:10160C0000F062F916E0BB6903F48063002B04D090
:10161C007B6A43F400537B620CE0BB6903F4006308
:10162C00002B04D07B6A43F480437B6202E0786831
:10163C0000F065F9BB6903F48033002B24D07B6880
:10164C001B684FF480329A60BB6903F40033002BA3
:10165C0003D0786800F041F916E0BB6903F48023ED
:10166C00002B04D07B6A43F400437B620CE0BB6923
:10167C0003F40023002B04D07B6A43F480337B6299
:10168C0002E0786800F044F93B6A03F00803002B91
:10169C000CD07B6903F01003002B07D07B6A43F45A
:1016AC0000737B627B681B681022DA603B6A03F074
:1016BC000403002B0BD07B6903F00803002B06D02E
:1016CC007B681B680822DA60786800F02AF93B6AAC
:1016DC0003F00203002B09D07B681B68DB6803F066
:1016EC000303002B02D07868FEF7D0FF3B6A03F0AF
:1016FC004003002B0CD03B6903F01003002B07D0E8
:10170C007B6A43F480637B627B681B6810221A61DE
:10171C003B6A03F02003002B0BD03B6903F008035A
:10172C00002B06D07B681B6808221A61786800F0D1
:10173C000AF93B6A03F01003002B09D07B681B6885
:10174C001B6903F00303002B02D0786800F0F2F859
:10175C003B6A03F40033002B0BD0FB6903F010033E
:10176C00002B06D07B681B6810225A60786800F04A
:10177C00F3F83B6A03F48033002B0BD0FB6903F0C6
:10178C000803002B06D07B681B6808225A60786817
:10179C0000F0EBF83B6A03F40043002B7BD0FB69B1
:1017AC0003F00403002B72D03B6A03F48073002B0C
:1017BC0008D0FB6803F00103002B03D07B6A43F0D5
:1017CC0001037B623B6A03F40073002B08D0FB68B7
:1017DC0003F00203002B03D07B6A43F002037B620D
:1017EC003B6A03F48063002B08D0FB6803F004030E
:1017FC00002B03D07B6A43F004037B623B6A03F447
:10180C000063002B43D0FB6803F07003002B3ED029
:10181C00FB6803F07003602B2BD0602B2ED8502B61
:10182C0022D0502B2AD8402B19D0402B26D8302B25
:10183C0010D0302B22D8102B02D0202B05D01DE03D
:10184C007B6A43F008037B6219E07B6A43F0100368
:10185C007B6214E07B6A43F020037B620FE07B6ABF
:10186C0043F040037B620AE07B6A43F080037B62B7
:10187C0005E07B6A43F480737B6200E000BF7B6809
:10188C001B689A697B681B6822F070029A617B68FE
:10189C001B6804225A607B6A002B08D07B685A6A4A
:1018AC007B6A1A437B685A62786800F067F800BF5D
:1018BC002837BD4680BD80B483B000AF786000BFD0
:1018CC000C37BD4680BC704780B483B000AF7860E5
:1018DC0000BF0C37BD4680BC704780B483B000AFEE
:1018EC00786000BF0C37BD4680BC704780B483B0B5
:1018FC0000AF786000BF0C37BD4680BC704780B429
:10190C0083B000AF786000BF0C37BD4680BC704719
:10191C0080B483B000AF786000BF0C37BD4680BC8C
:10192C00704780B483B000AF786000BF0C37BD4601
:10193C0080BC704780B483B000AF786000BF0C37B8
:10194C00BD4680BC704780B483B000AF786000BFE8
:10195C000C37BD4680BC704780B483B000AF786054
:10196C0000BF0C37BD4680BC704780B483B000AF5D
:10197C00786000BF0C37BD4680BC704780B483B024
:10198C0000AF786000BF0C37BD4680BC70470000CC
:10199C0080B485B000AF78607B6803F00703FB6010
:1019AC000C4BDB68BB60BA684FF6FF031340BB609F
:1019BC00FB681A02BB68134343F0BF6343F4003364
:1019CC00BB60044ABB68D36000BF1437BD4680BC03
:1019DC00704700BF00ED00E080B400AF044BDB6843
:1019EC001B0A03F007031846BD4680BC704700BFB6
:1019FC0000ED00E080B483B000AF0346FB7197F9B3
:101A0C000730002B0BDBFB7903F01F02064997F91B
:101A1C0007305B09012000FA02F241F8232000BFD5
:101A2C000C37BD4680BC704700E100E080B483B049
:101A3C0000AF03463960FB7197F90730002B0ADBC6
:101A4C003B68DAB20C4997F907301201D2B20B4459
:101A5C0083F800230AE03B68DAB20849FB7903F00B
:101A6C000F03043B1201D2B20B441A7600BF0C37A1
:101A7C00BD4680BC704700BF00E100E000ED00E017
:101A8C0080B489B000AFF860B9607A60FB6803F08D
:101A9C000703FB61FB69C3F10703042B28BF042375
:101AAC00BB61FB690433062B02D9FB69033B00E0E5
:101ABC0000237B614FF0FF32BB6902FA03F3DA4378
:101ACC00BB681A407B699A404FF0FF317B6901FA81
:101ADC0003F3D9437B680B40134318462437BD46A8
:101AEC0080BC704780B582B000AF78607B68013BEA
:101AFC00B3F1807F01D301230FE00A4A7B68013BDD
:101B0C0053600F214FF0FF30FFF790FF054B002281
:101B1C009A60044B07221A60002318460837BD460A
:101B2C0080BD00BF10E000E080B582B000AF7860EF
:101B3C007868FFF72DFF00BF0837BD4680BD80B524
:101B4C0086B000AF0346B9607A60FB7300237B61FB
:101B5C00FFF742FF78617A68B9687869FFF790FF00
:101B6C00024697F90F3011461846FFF75FFF00BF8A
:101B7C001837BD4680BD80B582B000AF0346FB71FF
:101B8C0097F907301846FFF735FF00BF0837BD46F9
:101B9C0080BD80B582B000AF78607868FFF7A2FF97
:101BAC00034618460837BD4680BD000080B48BB094
:101BBC0000AF7860396000237B6200233B6269E1EF
:101BCC0001227B6A02FA03F3FB613B681B68FA692A
:101BDC001340BB61BA69FB699A4240F058813B687B
:101BEC005B689A4A93425ED0984A934275D8984A59
:101BFC00934258D0964A93426FD8964A934252D009
:101C0C00944A934269D8944A93424CD0924A934254
:101C1C0063D8924A934246D0904A93425DD8122B95
:101C2C002AD8122B59D801A252F823F0B31C000861
:101C3C008D1C00089F1C0008E11C0008E71C000814
:101C4C00E71C0008E71C0008E71C0008E71C00085C
:101C5C00E71C0008E71C0008E71C0008E71C00084C
:101C6C00E71C0008E71C0008E71C0008E71C00083C
:101C7C00951C0008A91C0008794A934213D02CE04B
:101C8C003B68DB683B6229E03B68DB6804333B6202
:101C9C0024E03B68DB6808333B621FE03B68DB6891
:101CAC000C333B621AE03B689B68002B02D1042387
:101CBC003B6213E03B689B68012B05D108233B6218
:101CCC007B68FA691A6109E008233B627B68FA6950
:101CDC005A6103E000233B6200E000BFBB69FF2BAD
:101CEC0001D87B6801E07B6804337B61BB69FF2B07
:101CFC0002D87B6A9B0002E07B6A083B9B003B613D
:101D0C007B691A680F213B6901FA03F3DB431A4024
:101D1C00396A3B6901FA03F31A437B691A603B6821
:101D2C005B6803F08053002B00F0B1804D4B9B6936
:101D3C004C4A43F0010393614A4B9B6903F0010346
:101D4C00BB60BB68484A7B6A9B08023352F823305D
:101D5C00FB607B6A03F003039B000F2202FA03F380
:101D6C00DB43FA681340FB607B68404A934213D014
:101D7C007B683F4A93420DD07B683E4A934207D022
:101D8C007B683D4A934201D1032306E0042304E01F
:101D9C00022302E0012300E000237A6A02F003022E
:101DAC0092009340FA681343FB602F497B6A9B08AF
:101DBC000233FA6841F823203B685B6803F4801314
:101DCC00002B06D02D4B9A682C49BB6913438B60B2
:101DDC0006E02A4B9A68BB69DB43284913408B60A9
:101DEC003B685B6803F40013002B06D0234BDA68C6
:101DFC002249BB691343CB6006E0204BDA68BB6910
:101E0C00DB431E491340CB603B685B6803F4003333
:101E1C00002B06D0194B5A681849BB6913434B6009
:101E2C0006E0164B5A68BB69DB43144913404B6000
:101E3C003B685B6803F48033002B21D00F4B1A688E
:101E4C000E49BB6913430B6021E000BF0000321048
:101E5C0000003110000022100000211000001210B0
:101E6C000000111000100240000001400008014069
:101E7C00000C01400010014000140140000401401E
:101E8C000B4B1A68BB69DB43094913400B607B6A37
:101E9C0001337B623B681A687B6A22FA03F3002BDE
:101EAC007FF48EAE00BF00BF2C37BD4680BC7047A0
:101EBC000004014080B483B000AF78600B467B8097
:101ECC0013467B707B78002B03D07A887B681A6171
:101EDC0003E07B881A047B681A6100BF0C37BD468F
:101EEC0080BC704780B584B000AF78607B68002BF5
:101EFC0001D101232BE17B6893F83D30DBB2002B41
:101F0C0006D17B68002283F83C207868FEF75EFEE1
:101F1C007B68242283F83D207B681B681A687B68E9
:101F2C001B6822F001021A607B681B681A687B68C8
:101F3C001B6842F400421A607B681B681A687B6855
:101F4C001B6822F400421A6001F060F9F8607B68AB
:101F5C005B68814A934207D8FB68804A934294BFDE
:101F6C0001230023DBB206E0FB687D4A934294BF59
:101F7C0001230023DBB2002B01D00123E7E0FB6837
:101F8C00784AA2FB03239B0CBB607B681B685B68D5
:101F9C0023F03F017B681B68BA680A435A607B6870
:101FAC001B681B6A23F03F017B685B686A4A93429B
:101FBC0002D8BB68013309E0BB684FF4967202FB90
:101FCC0003F3694AA2FB03239B0901337A68126865
:101FDC000B4313627B681B68DB6923F44F4222F0CE
:101FEC00FF027B685B685C498B4219D8FB68591E01
:101FFC007B685B685B00B1FBF3F3591C40F6FC7328
:10200C000B40002B0AD0FB68591E7B685B685B0099
:10201C00B1FBF3F30133C3F30B0351E004234FE0A3
:10202C007B689B68002B11D1FB68581E7B68596834
:10203C000B465B000B44B0FBF3F30133C3F30B0310
:10204C00002B0CBF01230023DBB212E0FB68581EEF
:10205C007B6859680B469B000B4499000B44B0FB02
:10206C00F3F30133C3F30B03002B0CBF0123002349
:10207C00DBB2002B01D0012322E07B689B68002B94
:10208C000ED1FB68581E7B6859680B465B000B44ED
:10209C00B0FBF3F30133C3F30B0343F400430FE042
:1020AC00FB68581E7B6859680B469B000B449900D3
:1020BC000B44B0FBF3F30133C3F30B0343F4404382
:1020CC00796809681343CB617B681B681B6823F034
:1020DC00C0017B68DA697B681B6A1A437B681B68E2
:1020EC000A431A607B681B689B6823F4034323F044
:1020FC00FF037A6811697A68D26811437A681268AA
:10210C000B4393607B681B68DB6823F0FF017B68E3
:10211C005A697B689B691A437B681B680A43DA60BF
:10212C007B681B681A687B681B6842F001021A60A6
:10213C007B6800221A647B68202283F83D207B6830
:10214C0000221A637B68002283F83E200023184685
:10215C001037BD4680BD00BFA08601007F841E00E5
:10216C00FF083D0083DE1B43D34D621080B588B061
:10217C0002AFF8607A601A460B467B8113463B81AE
:10218C00FEF766FE7861FB6893F83D30DBB2202BDE
:10219C0040F0E0807B690093192301227049F868B4
:1021AC0000F092FA0346002B01D00223D3E0FB6827
:1021BC0093F83C30012B01D10223CCE0FB680122C7
:1021CC0083F83C20FB681B681B6803F00103012BA0
:1021DC0007D0FB681B681A68FB681B6842F0010299
:1021EC001A60FB681B681A68FB681B6822F40062A3
:1021FC001A60FB68212283F83D20FB68102283F8CB
:10220C003E20FB6800221A64FB687A685A62FB68FD
:10221C003A895A85FB685B8D9AB2FB681A85FB6814
:10222C00504ADA6279897B693A6AF86800F0CAF92F
:10223C000346002B01D001238DE000233B61FB689A
:10224C001B685B693B61FB681B689B693B613B6975
:10225C0066E07A69396AF86800F050FB0346002B97
:10226C000DD0FB681B6C042B07D1FB681B681A682C
:10227C00FB681B6842F400721A6001236BE0FB6878
:10228C005B6A1A78FB681B681A61FB685B6A5A1CEC
:10229C00FB685A62FB685B8D9BB2013B9AB2FB6890
:1022AC005A85FB681B8D013B9AB2FB681A85FB684B
:1022BC001B685B6903F00403042B1BD1FB681B8DAB
:1022CC00002B17D0FB685B6A1A78FB681B681A61D5
:1022DC00FB685B6A5A1CFB685A62FB685B8D9BB29D
:1022EC00013B9AB2FB685A85FB681B8D013B9AB285
:1022FC00FB681A857A69396AF86800F047FB03466F
:10230C00002B0DD0FB681B6C042B07D1FB681B68E2
:10231C001A68FB681B6842F400721A6001231AE009
:10232C00FB681B8D002B94D1FB681B681A68FB683B
:10233C001B6842F400721A60FB68202283F83D206F
:10234C00FB68002283F83E20FB68002283F83C20C7
:10235C00002300E0022318461837BD4680BD00BF9D
:10236C00020010000000FFFF80B58AB002AFF860D9
:10237C007A603B600B467B81FEF76AFDF8610023B7
:10238C00BB61FB6893F83D30DBB2202B40F0118130
:10239C00FB690093192301228849F86800F094F92D
:1023AC000346002B01D0022304E1FB6893F83C3078
:1023BC00012B01D10223FDE0FB68012283F83C20B4
:1023CC00FB681B681B6803F00103012B07D0FB683B
:1023DC001B681A68FB681B6842F001021A60FB68F4
:1023EC001B681A68FB681B6822F400621A60FB68A1
:1023FC00242283F83D20FB6800221A64FB68704A93
:10240C00DA62FB681B681A68FB681B6842F480720E
:10241C001A60FB6900933B6800224FF00111F868C9
:10242C0000F052F90346002B0DD0FB681B681B68AB
:10243C0003F48073B3F5807F03D1FB684FF4007213
:10244C001A640323B6E07B89DBB21A46FB681B686F
:10245C0002F0FE021A61FEF7FBFCF861FB681B68D8
:10246C005B6903F00203022B0CBF01230023DBB2D8
:10247C00FB75FB681B685B6903F48063B3F5806FC5
:10248C000CBF01230023DBB2BB7525E0FEF7E0FC9B
:10249C000246FB69D31A3A689A4202D33B68002B76
:1024AC0003D1FB68A02283F83D20FB681B685B69A5
:1024BC0003F00203022B0CBF01230023DBB2FB75DC
:1024CC00FB681B685B6903F48063B3F5806F0CBF1A
:1024DC0001230023DBB2BB75FB6893F83D30DBB204
:1024EC00A02B05D0FB7D002B02D1BB7D002BCDD0CA
:1024FC00FB68202283F83D20FB681B685B6903F0B6
:10250C000203022B29D1FB681B681A68FB681B6845
:10251C0042F400721A6000233B61FB681B685B6924
:10252C003B61FB681B689B693B613B69FB690093E2
:10253C00192301222149F86800F0C6F80346002B44
:10254C0001D0012336E0FB68202283F83D20FB6894
:10255C00002283F83C2000232CE0FB681B681A68DF
:10256C00FB681B6842F400721A60FB681B686FF40E
:10257C0080625A61FB690093192301220F49F868A4
:10258C0000F0A2F80346002B01D0012312E0BB6936
:10259C000133BB61BA697B689A42FFF432AFFB68C6
:1025AC00202283F83D20FB68002283F83C20012385
:1025BC0000E0022318462037BD4680BD0200100003
:1025CC000000FFFF80B588B002AFF8607A603B6016
:1025DC000B467B81FB68DB6A7B617B69082B06D031
:1025EC007B69012B03D07B6913F5803F08D1FB6815
:1025FC001B681A68FB681B6842F480721A600BE057
:10260C00FB681B6B122B07D1FB681B681A68FB68F5
:10261C001B6842F480721A603B6800937B6800224E
:10262C004FF00111F86800F04FF80346002B0DD065
:10263C00FB681B681B6803F48073B3F5807F03D1C0
:10264C00FB684FF400721A64032335E0FB681B69C6
:10265C00B3F5804F08D17B89DBB21A46FB681B6847
:10266C0002F0FE021A611BE07B89DB11DBB203F086
:10267C000603DBB263F00F03DAB2FB681B681A6166
:10268C003B687A680E49F86800F098F80346002B0E
:10269C0001D0012310E07B89DAB2FB681B681A6158
:1026AC003B687A680749F86800F088F80346002B05
:1026BC0001D0012300E0002318461837BD4680BD29
:1026CC00080001000200010080B584B000AFF86082
:1026DC00B9603B601346FB7148E03B68B3F1FF3FC8
:1026EC0044D0FEF7B5FB0246BB69D31A3A689A424E
:1026FC0002D33B68002B39D1BB681B0CDBB2012B1E
:10270C000DD1FB681B685B69DA43BB6813409BB255
:10271C00002B0CBF01230023DBB21A460CE0FB6834
:10272C001B689B69DA43BB6813409BB2002B0CBF40
:10273C0001230023DBB21A46FB799A4216D1FB68BF
:10274C0000221A63FB68202283F83D20FB680022DC
:10275C0083F83E20FB681B6C43F02002FB681A6474
:10276C00FB68002283F83C20012323E0BB681B0C90
:10277C00DBB2012B0DD1FB681B685B69DA43BB68CC
:10278C0013409BB2002B0CBF01230023DBB21A4673
:10279C000CE0FB681B689B69DA43BB6813409BB277
:1027AC00002B0CBF01230023DBB21A46FB799A42A3
:1027BC0093D0002318461037BD4680BD80B584B039
:1027CC0000AFF860B9607A603B6071E0FB681B6831
:1027DC005B6903F48063B3F5806F23D1FB681B68DE
:1027EC001A68FB681B6842F400721A60FB681B686D
:1027FC006FF480625A61FB6800221A63FB68202226
:10280C0083F83D20FB68002283F83E20FB681B6C9C
:10281C0043F00402FB681A64FB68002283F83C2036
:10282C00012367E07B68B3F1FF3F41D0FEF710FB5B
:10283C0002463B68D31A7A689A4202D37B68002B13
:10284C0036D1BB681B0CDBB2012B0CD1FB681B68AF
:10285C005B69DA43BB6813409BB2002B14BF0123A6
:10286C000023DBB20BE0FB681B689B69DA43BB6897
:10287C0013409BB2002B14BF01230023DBB2002BAF
:10288C0016D0FB6800221A63FB68202283F83D20D7
:10289C00FB68002283F83E20FB681B6C43F020028F
:1028AC00FB681A64FB68002283F83C20012321E0BA
:1028BC00BB681B0CDBB2012B0CD1FB681B685B6982
:1028CC00DA43BB6813409BB2002B14BF01230023D7
:1028DC00DBB20BE0FB681B689B69DA43BB681340F7
:1028EC009BB2002B14BF01230023DBB2002B7FF41F
:1028FC006DAF002318461037BD4680BD80B584B03F
:10290C0000AFF860B9607A6034E0F86800F086F8DF
:10291C000346002B01D0012334E0BB68B3F1FF3F29
:10292C0028D0FEF795FA02467B68D31ABA689A4209
:10293C0002D3BB68002B1DD1FB681B685B6903F0DD
:10294C008003802B16D0FB6800221A63FB682022C0
:10295C0083F83D20FB68002283F83E20FB681B6C4B
:10296C0043F02002FB681A64FB68002283F83C20C9
:10297C00012307E0FB681B685B6903F08003802B75
:10298C00C3D1002318461037BD4680BD80B584B036
:10299C0000AFF860B9607A6034E0F86800F03EF897
:1029AC000346002B01D0012334E0BB68B3F1FF3F99
:1029BC0028D0FEF74DFA02467B68D31ABA689A42C1
:1029CC0002D3BB68002B1DD1FB681B685B6903F04D
:1029DC000403042B16D0FB6800221A63FB68202228
:1029EC0083F83D20FB68002283F83E20FB681B6CBB
:1029FC0043F02002FB681A64FB68002283F83C2039
:102A0C00012307E0FB681B685B6903F00403042BDC
:102A1C00C3D1002318461037BD4680BD80B483B0A7
:102A2C0000AF78607B681B685B6903F48063B3F567
:102A3C00806F1BD17B681B686FF480625A617B6866
:102A4C0000221A637B68202283F83D207B680022D9
:102A5C0083F83E207B681B6C43F004027B681A648D
:102A6C007B68002283F83C20012300E000231846F9
:102A7C000C37BD4680BC704780B586B000AF78601F
:102A8C007B68002B01D1012372E27B681B6803F089
:102A9C000103002B00F08780924B5B6803F00C0362
:102AAC00042B0CD08F4B5B6803F00C03082B12D15A
:102ABC008C4B5B6803F48033B3F5803F0BD1894BAF
:102ACC001B6803F40033002B6CD07B685B68002B15
:102ADC0068D101234CE27B685B68B3F5803F06D17B
:102AEC00804B1B687F4A43F4803313602EE07B6875
:102AFC005B68002B0CD17B4B1B687A4A23F4803328
:102B0C001360784B1B68774A23F4802313601DE015
:102B1C007B685B68B3F5A02F0CD1724B1B68714AB4
:102B2C0043F4802313606F4B1B686E4A43F480336D
:102B3C0013600BE06B4B1B686A4A23F48033136001
:102B4C00684B1B68674A23F4802313607B685B68BF
:102B5C00002B13D0FEF77CF9386108E0FEF778F90A
:102B6C0002463B69D31A642B01D9032300E25D4B67
:102B7C001B6803F40033002BF0D014E0FEF768F967
:102B8C00386108E0FEF764F902463B69D31A642BFE
:102B9C0001D90323ECE1534B1B6803F40033002BE6
:102BAC00F0D100E000BF7B681B6803F00203002B30
:102BBC0063D04C4B5B6803F00C03002B0BD0494BE0
:102BCC005B6803F00C03082B1CD1464B5B6803F4C9
:102BDC008033002B16D1434B1B6803F00203002BF0
:102BEC0005D07B681B69012B01D00123C0E13D4B53
:102BFC001B6823F0F8027B685B69DB0039491343DF
:102C0C000B603AE07B681B69002B20D0364B01220D
:102C1C001A60FEF71DF9386108E0FEF719F9024653
:102C2C003B69D31A022B01D90323A1E12D4B1B685D
:102C3C0003F00203002BF0D02A4B1B6823F0F802A0
:102C4C007B685B69DB00274913430B6015E0264B5F
:102C5C0000221A60FEF7FCF8386108E0FEF7F8F87D
:102C6C0002463B69D31A022B01D9032380E11D4B89
:102C7C001B6803F00203002BF0D17B681B6803F088
:102C8C000803002B3AD07B689B69002B19D0174B9B
:102C9C0001221A60FEF7DCF8386108E0FEF7D8F87C
:102CAC0002463B69D31A022B01D9032360E10D4B79
:102CBC005B6A03F00203002BF0D0012000F0BAFA9B
:102CCC001CE00A4B00221A60FEF7C2F838610FE0D4
:102CDC00FEF7BEF802463B69D31A022B08D9032330
:102CEC0046E100BF00100240000042428004424214
:102CFC00924B5B6A03F00203002BE9D17B681B68E3
:102D0C0003F00403002B00F0A6800023FB758B4B13
:102D1C00DB6903F08053002B0DD1884BDB69874AAC
:102D2C0043F08053D361854BDB6903F08053BB6068
:102D3C00BB680123FB75824B1B6803F48073002B6B
:102D4C0018D17F4B1B687E4A43F480731360FEF7E7
:102D5C007FF8386108E0FEF77BF802463B69D31A2E
:102D6C00642B01D9032303E1754B1B6803F48073B7
:102D7C00002BF0D07B68DB68012B06D16F4B1B6AF4
:102D8C006E4A43F0010313622DE07B68DB68002B75
:102D9C000CD16A4B1B6A694A23F001031362674B1F
:102DAC001B6A664A23F0040313621CE07B68DB6831
:102DBC00052B0CD1614B1B6A604A43F00403136270
:102DCC005E4B1B6A5D4A43F0010313620BE05B4BE5
:102DDC001B6A5A4A23F001031362584B1B6A574A69
:102DEC0023F0040313627B68DB68002B15D0FEF71D
:102DFC002FF838610AE0FEF72BF802463B69D31A2C
:102E0C0041F28832934201D90323B1E04B4B1B6A48
:102E1C0003F00203002BEED014E0FEF719F8386132
:102E2C000AE0FEF715F802463B69D31A41F28832E4
:102E3C00934201D903239BE0404B1B6A03F002032E
:102E4C00002BEED1FB7D012B05D13C4BDB693B4AC2
:102E5C0023F08053D3617B68DB69002B00F0878003
:102E6C00364B5B6803F00C03082B61D07B68DB6985
:102E7C00022B46D1334B00221A60FDF7E9FF386173
:102E8C0008E0FDF7E5FF02463B69D31A022B01D996
:102E9C0003236DE0294B1B6803F00073002BF0D16A
:102EAC007B681B6AB3F5803F08D1244B5B6823F425
:102EBC0000327B689B68214913434B601F4B5B6856
:102ECC0023F474127B68196A7B685B6A0B431B4999
:102EDC0013434B601B4B01221A60FDF7B9FF38619D
:102EEC0008E0FDF7B5FF02463B69D31A022B01D966
:102EFC0003233DE0114B1B6803F00073002BF0D053
:102F0C0035E0104B00221A60FDF7A2FF386108E093
:102F1C00FDF79EFF02463B69D31A022B01D903230E
:102F2C0026E0064B1B6803F00073002BF0D11EE06B
:102F3C007B68DB69012B07D1012319E000100240EB
:102F4C0000700040600042420B4B5B68FB60FB680A
:102F5C0003F480327B681B6A9A4206D1FB6803F447
:102F6C0070127B685B6A9A4201D0012300E0002357
:102F7C0018461837BD4680BD0010024080B584B09D
:102F8C0000AF786039607B68002B01D10123D0E061
:102F9C006A4B1B6803F007033A689A4210D9674BD7
:102FAC001B6823F0070265493B6813430B60634BB6
:102FBC001B6803F007033A689A4201D00123B8E07A
:102FCC007B681B6803F00203002B20D07B681B6816
:102FDC0003F00403002B05D0594B5B68584A43F4AB
:102FEC00E06353607B681B6803F00803002B05D07B
:102FFC00534B5B68524A43F460535360504B5B68CD
:10300C0023F0F0027B689B684D4913434B607B684F
:10301C001B6803F00103002B40D07B685B68012B1D
:10302C0007D1474B1B6803F40033002B15D1012348
:10303C007FE07B685B68022B07D1414B1B6803F078
:10304C000073002B09D1012373E03D4B1B6803F087
:10305C000203002B01D101236BE0394B5B6823F099
:10306C0003027B685B68364913434B60FDF7F0FE47
:10307C00F8600AE0FDF7ECFE0246FB68D31A41F259
:10308C008832934201D9032353E02D4B5B6803F044
:10309C000C027B685B689B009A42EBD1274B1B6848
:1030AC0003F007033A689A4210D2244B1B6823F0B2
:1030BC00070222493B6813430B60204B1B6803F04B
:1030CC0007033A689A4201D0012332E07B681B68FF
:1030DC0003F00403002B08D0194B5B6823F4E06267
:1030EC007B68DB68164913434B607B681B6803F0F5
:1030FC000803002B09D0124B5B6823F460527B68E9
:10310C001B69DB000E4913434B6000F021F80246AB
:10311C000B4B5B681B0903F00F030A49CB5C22FACB
:10312C0003F3094A1360094B1B681846FDF74EFE62
:10313C00002318461037BD4680BD00BF002002405A
:10314C0000100240CC430008080000200C000020B6
:10315C0080B487B000AF0023FB600023BB6000236A
:10316C007B6100237B6000233B611E4B5B68FB6033
:10317C00FB6803F00C03042B02D0082B03D027E0D0
:10318C00194B3B6127E0FB689B0C03F00F03174ABC
:10319C00D35C7B60FB6803F48033002B10D0114BA5
:1031AC005B685B0C03F00103114AD35CBB607B686A
:1031BC000D4A03FB02F2BB68B2FBF3F37B6104E044
:1031CC007B680C4A02FB03F37B617B693B6102E089
:1031DC00054B3B6100BF3B6918461C37BD4680BCA4
:1031EC00704700BF0010024000127A00E443000850
:1031FC00F443000800093D0080B400AF024B1B688B
:10320C001846BD4680BC70470800002080B500AF52
:10321C00FFF7F2FF0246054B5B681B0A03F007033E
:10322C000349CB5C22FA03F3184680BD0010024020
:10323C00DC43000880B485B000AF78600A4B1B6893
:10324C000A4AA2FB03235B0A7A6802FB03F3FB60C6
:10325C0000BFFB685A1EFA60002BF9D100BF00BFFB
:10326C001437BD4680BC704708000020D34D621057
:10327C000CB430B5174B0C1E1D689DB008DA8B23AF
:10328C004FF0FF302B601DB0BDE8304002B07047EE
:10329C004FF40273ADF814300CBF234604F1FF3326
:1032AC00049307934FF6FF7302900690ADF8163017
:1032BC00284621AB209A02A9019300F093F9431CF4
:1032CC00BCBF8B232B60002CDDD00022029B1A701C
:1032DC00D9E700BF1400002003460244934200D1FA
:1032EC00704703F8011BF9E7014B1868704700BFE2
:1032FC001400002070B500260C4D0D4C641BA4105E
:10330C00A64209D100F078FC00260A4D0A4C641B39
:10331C00A410A64205D170BD55F8043B9847013660
:10332C00EEE755F8043B98470136F2E734440008C1
:10333C00344400083444000838440008704770478F
:10334C0038B50546002940D051F8043C0C1F002B21
:10335C00B8BFE41800F0DEF81C4A136833B9636098
:10336C0014602846BDE8384000F0DAB8A34208D90A
:10337C00206821188B4201BF19685B68091821600D
:10338C00EDE71A465B680BB1A342FAD911685018E5
:10339C00A0420BD120680144501883421160E0D147
:1033AC0018685B68084410605360DAE702D90C2394
:1033BC002B60D6E7206821188B4201BF19685B6827
:1033CC000918216063605460CBE738BD9C0600206F
:1033DC0070B50F4E0C463168054611B900F0AAFBCA
:1033EC0030602146284600F0A5FB431C03D14FF06A
:1033FC00FF34204670BDC41C24F00304A042F8D056
:10340C00211A284600F096FB0130F2D1EFE700BFFD
:10341C00980600202DE9F843CD1C25F0030508354E
:10342C000C2D38BF0C25002D064601DBA94204D912
:10343C000C2333600020BDE8F883DFF8D48000F063
:10344C0069F8D8F800301C4644BB29463046FFF7D3
:10345C00BFFF431C044658D1D8F800402746002F24
:10346C0043D1002C4BD023683946304604EB03097A
:10347C0000F060FB814542D1216830466D1A294627
:10348C00FFF7A6FF01303AD023682B442360D8F80D
:10349C0000305A6862BBC8F800700FE02268521BFB
:1034AC0020D40B2A17D96119A342256018BF596083
:1034BC00636808BFC8F8001062514B60304600F0DA
:1034CC002FF804F10B00231D20F00700C21A1CBFBB
:1034DC001B1AA350AFE76268A3420CBFC8F80020C8
:1034EC005A60EBE723466468AEE73C467F68B6E774
:1034FC001A465B68A342FBD100235360DEE70C2322
:10350C003046336000F00CF894E70560D6E700BF56
:10351C009C0600200148FFF711BF00BF9406002055
:10352C000148FFF70CBF00BF940600202DE9F047BF
:10353C001F468E688246BE420C4690460B682DD8BC
:10354C00B1F90C2012F4906F26D06569096905EB6E
:10355C004505A3EB010905EBD5757B1C4B446D10A0
:10356C009D4238BF1D46530527D52946FFF752FF0C
:10357C00064660B34A46216900F0FAFAA38923F49F
:10358C00906343F08003A38126614E4426603E463F
:10359C006561A5EB0905A560BE4200D93E463246E1
:1035AC004146206800F0ACFA0020A3689B1BA36086
:1035BC00236833442360BDE8F0872A4600F0E6FA1E
:1035CC0006460028E0D150462169FFF7B9FE0C23CE
:1035DC00CAF80030A3894FF0FF3043F04003A381B9
:1035EC00E9E700002DE9F04F98468B8907461B064A
:1035FC000D4614469DB010D50B6973B94021FFF7E9
:10360C0009FF2860286130B90C233B604FF0FF3074
:10361C001DB0BDE8F08F40236B610023099320237C
:10362C008DF8293030234FF00109CDF80C80DFF8EC
:10363C0098818DF82A3023469A4613F8012B0AB14B
:10364C00252AF9D1BAEB040B0BD05B46224629464E
:10365C003846FFF76BFF013000F0A780099A5A44F7
:10366C0009929AF80030002B00F09F8000234FF055
:10367C00FF32CDE905230AF1010A049307938DF873
:10368C0053301A935446052214F8011B4E4800F08F
:10369C0061FA049AD8B9D00644BF20238DF8533070
:1036AC00110744BF2B238DF853309AF800302A2B86
:1036BC0015D0544600204FF00A0C079A214611F8F9
:1036CC00013B303B092B4BD9B0B1079214E0A0EB76
:1036DC00080309FA03F31343A2460493D2E7039BAE
:1036EC00191D1B680391002BBBBF5B4242F0020209
:1036FC0007930793B8BF049223782E2B0AD16378D3
:10370C002A2B32D1039B02341A1D1B68039243EA05
:10371C00E3730593DFF8B4A003225046217800F040
:10372C0019FA38B14022049BA0EB0A0082401343E3
:10373C000134049314F8011B062225488DF8281037
:10374C0000F008FA002836D0224B1BBB039B073332
:10375C0023F0070308330393099B334409936AE767
:10376C000C4601200CFB0232A8E700234FF00A0C98
:10377C00194601340593204610F8012B303A092ADA
:10378C0003D9002BC6D00591C4E7044601230CFBDA
:10379C000121F0E703AB00932A4638460E4B04A9EF
:1037AC00AFF30080421C0646D6D1AB895B063FF5D1
:1037BC002DAF09982CE703AB00932A463846064BED
:1037CC0004A900F07DF8EDE7F6430008FC4300087F
:1037DC000044000800000000393500082DE9F047CE
:1037EC00164698468A680B6907469342B8BF13463B
:1037FC00336091F843200C46DDF820900AB1013378
:10380C0033602368990642BF3368023333602568FE
:10381C0015F0060506D104F1190AE36832689B1A03
:10382C00AB422BDC94F843302268003B18BF0123D9
:10383C00920630D44146384604F14302C847013061
:10384C0023D02368226903F00603042B14BF002540
:10385C0033684FF0000608BFE56804F11A0408BF8E
:10386C00ED1A54F8123C08BF25EAE5759342C4BF23
:10387C009B1AED18B5421AD1002008E001235246DC
:10388C0041463846C847013003D14FF0FF30BDE800
:10389C00F0870135C1E73020E11881F843005A1C4C
:1038AC0094F845102244023382F84310C2E70123F6
:1038BC00224641463846C8470130E6D00136D9E7A2
:1038CC002DE9FF470F7E9146782F80460C469A468D
:1038DC000C9E01F1430207D8622F0AD8002F00F08A
:1038EC00D380582F00F0BA8004F1420684F842705D
:1038FC003AE0A7F16303152BF6D801A151F823F098
:10390C006539000879390008F5380008F5380008E1
:10391C00F5380008F538000879390008F538000842
:10392C00F5380008F5380008F53800087B3A00082F
:10393C00A3390008353A0008F5380008F5380008B6
:10394C009D3A0008F5380008A3390008F53800083E
:10395C00F53800083D3A000833681A1D1B683260C0
:10396C0004F1420684F8423001239EE0336820685B
:10397C00191D3160060601D51D6803E04506FBD50F
:10398C00B3F90050002D03DA2D236D4284F8433037
:10399C000A23594811E021683368080653F8045B80
:1039AC0002D4490648BFADB26F2F336014BF0A234F
:1039BC0008235148002184F843106668002EA8BFE4
:1039CC002168A660A4BF21F0040121600DB9002E6E
:1039DC004BD01646B5FBF3F103FB1157C75D06F848
:1039EC00017D2F46BB420D46F4D9082B0BD1236821
:1039FC00DF0708D5236961689942DEBF302306F8DA
:103A0C00013C06F1FF36921B22614B462146404693
:103A1C00CDF800A003AAFFF7E1FE01304AD14FF028
:103A2C00FF3004B0BDE8F087236843F02003236027
:103A3C007827324884F84570236831681F0651F89E
:103A4C00045B02D45F0648BFADB23160D90744BFF6
:103A5C0043F0200323601DB11023ABE72648E9E7B0
:103A6C00236823F020032360F6E71646BDE733688E
:103A7C002568181D616930602E061B6801D5196018
:103A8C0002E06806FBD51980002316462361BCE7CB
:103A9C00336800211A1D32601E686268304600F0DF
:103AAC0059F808B1801B606063682361002384F8B7
:103ABC004330AAE73246494640462369D047013095
:103ACC00ADD023689B0713D4E068039B9842B8BF22
:103ADC001846A6E70123324649464046D0470130F6
:103AEC009DD00135E36803995B1AAB42F2DCEBE73E
:103AFC00002504F11906F5E70744000818440008EE
:103B0C00884210B501EB020402D98442234607D83F
:103B1C00431EA14208D011F8012B03F8012FF8E73E
:103B2C00014602448A4200D110BD13F8014D02F83F
:103B3C00014DF7E738B50023054D044608462B60C8
:103B4C00FDF7CCF8431C02D12B6803B1236038BDC0
:103B5C0090060020034610B5C9B2024493421846A1
:103B6C0001D1002003E0047801338C42F6D110BD62
:103B7C000A44914200F1FF3300D1704710B511F89F
:103B8C00014B914203F8014FF9D110BD2DE9F041E1
:103B9C00804615460C4621B91146BDE8F041FFF7A9
:103BAC0039BC2AB9FFF7CCFB00242046BDE8F081D4
:103BBC0000F01AF88542064602D8B5EB500FF4D83F
:103BCC0029464046FFF726FC07460028ECD0B542B4
:103BDC002A46214628BF3246FFF7CAFF21464046F7
:103BEC00FFF7AEFB3C46E0E751F8043C181F002BF6
:103BFC00BCBF0B58C0187047F8B500BFF8BC08BC68
:103C0C009E467047F8B500BFF8BC08BC9E4670478E
:103C1C002575000053706565643A200052504D00C4
:103C2C004D6F64653A20000053746F700000000003
:103C3C0052756E00446972656374696F6E3A200048
:103C4C00466F7277617264004261636B7761726474
:103C5C000000000000000000000000000000000058
:103C6C000000000000000000001000100010001008
:103C7C0000100010000000100000000000280028B8
:103C8C000028000000000000000000000000000000
:103C9C0000240024007C00240048007C00480048DC
:103CAC00000000000038005400500038001400548C
:103CBC000054003800100000002000540058003060
:103CCC000028005400140008000000000010002818
:103CDC0000280010003400480048003400000000A8
:103CEC000010001000100000000000000000000098
:103CFC000000000000080010002000200020002020
:103D0C00002000200010000800200010000800080F
:103D1C0000080008000800080010002000100038FF
:103D2C00001000280000000000000000000000004F
:103D3C000000000000100010007C001000100000BB
:103D4C000000000000000000000000000000000067
:103D5C000000001000100010000000000000000027
:103D6C00000000380000000000000000000000000F
:103D7C000000000000000000000000100000000027
:103D8C000008000800100010001000100020002097
:103D9C00000000000038004400440054004400447B
:103DAC0000440038000000000010003000500010EB
:103DBC00001000100010001000000000003800443B
:103DCC0000440004000800100020007C00000000EB
:103DDC0000380044000400180004000400440038BB
:103DEC000000000000080018002800280048007C93
:103DFC000008000800000000007C00400040007833
:103E0C0000040004004400380000000000380044A6
:103E1C0000400078004400440044003800000000DA
:103E2C00007C00040008001000100020002000207E
:103E3C0000000000003800440044003800440044F6
:103E4C0000440038000000000038004400440044E6
:103E5C00003C00040044003800000000000000009A
:103E6C000010000000000000000000100000000026
:103E7C000000000000000010000000000000001016
:103E8C000010001000000000000C0030004000305A
:103E9C00000C000000000000000000000000007C8E
:103EAC000000007C0000000000000000000000008A
:103EBC000060001800040018006000000000000002
:103ECC00003800440004000800100010000000102E
:103EDC000000000000380044004C0054005C00401E
:103EEC0000400038000000000010002800280028C6
:103EFC000028007C004400440000000000780044CE
:103F0C0000440078004400440044007800000000A5
:103F1C00003800440040004000400040004400389D
:103F2C0000000000007000480044004400440044BD
:103F3C000048007000000000007C00400040007C45
:103F4C00004000400040007C00000000007C00406D
:103F5C00004000780040004000400040000000009D
:103F6C000038004400400040005C0044004400382D
:103F7C0000000000004400440044007C0044004465
:103F8C000044004400000000003800100010001035
:103F9C0000100010001000380000000000040004A5
:103FAC000004000400040004004400380000000079
:103FBC000044004800500060005000480048004495
:103FCC000000000000400040004000400040004065
:103FDC000040007C000000000044006C006C0054A9
:103FEC00004400440044004400000000004400640D
:103FFC00006400540054004C004C004400000000CD
:10400C00003800440044004400440044004400389C
:10401C000000000000780044004400440078004098
:10402C000040004000000000003800440044004400
:10403C0000440044005400380004000000780044A0
:10404C000044004400780048004800440000000090
:10405C0000380044004000300008000400440038E0
:10406C0000000000007C0010001000100010001078
:10407C000010001000000000004400440044004404
:10408C000044004400440038000000000044004498
:10409C000044002800280028001000100000000038
:1040AC0000440044005400540054006C00280028C4
:1040BC000000000000440028002800100010002818
:1040CC0000280044000000000044004400280028A0
:1040DC00001000100010001000000000007C000414
:1040EC0000080010001000200040007C00000000C0
:1040FC00001800100010001000100010001000102C
:10410C0000100018002000200010001000100010FB
:10411C000008000800000000003000100010001023
:10412C0000100010001000100010003000100028CB
:10413C000028004400000000000000000000000007
:10414C000000000000000000000000000000000063
:10415C00000000FE00200010000000000000000025
:10416C0000000000000000000000000000380044C7
:10417C00003C0044004C00340000000000400040B3
:10418C000058006400440044006400580000000023
:10419C00000000000038004400400040004400389B
:1041AC0000000000000400040034004C00440044F3
:1041BC00004C0034000000000000000000380044F7
:1041CC00007C00400044003800000000000C00108F
:1041DC00007C001000100010001000100000000007
:1041EC00000000000034004C00440044004C00343B
:1041FC000004007800400040005800640044004473
:10420C00004400440000000000100000007000108A
:10421C000010001000100010000000000010000042
:10422C00007000100010001000100010001000E0D2
:10423C00004000400048005000600050004800441E
:10424C0000000000007000100010001000100010A2
:10425C000010001000000000000000000078005466
:10426C0000540054005400540000000000000000F2
:10427C000058006400440044004400440000000066
:10428C0000000000003800440044004400440038A2
:10429C0000000000000000000058006400440044CE
:1042AC000064005800400040000000000034004C46
:1042BC0000440044004C00340004000400000000E2
:1042CC000058006400400040004000400000000026
:1042DC0000000000003800440030000800440038A2
:1042EC0000000000002000200078002000200020AA
:1042FC0000200018000000000000000000440044F2
:10430C0000440044004C0034000000000000000099
:10431C000044004400280028002800100000000081
:10432C0000000000005400540054006C00280028C9
:10433C0000000000000000000044002800100010E5
:10434C00002800440000000000000000004400446D
:10435C000028002800100010001000600000000071
:10436C00007C0008001000200040007C00000000D1
:10437C000018001000100010002000200010001089
:10438C000010001800100010001000100010001099
:10439C000010001000100010003000100010001071
:1043AC000008000800100010001000300000000091
:1043BC0000000074004C0000000000000000000031
:1043CC0000000000000000000102030406070809B9
:1043DC00000000000102030402030405060708099B
:1043EC000A0B0C0D0E0F10100102232D302B200088
:1043FC00686C4C0065666745464700303132333493
:10440C003536373839414243444546003031323332
:10441C0034353637383961626364656600000000F4
:08442C0020BDFF7F010000002C
:04443400310100084A
:044438000D0100086A
:10443C00070A0000603C000800127A00100000001F
:10444C0001000000180000200000000058050020AA
:10445C00C00500202806002000000000000000001D
:10446C000000000000000000000000000000000040
:10447C000000000000000000000000000000000030
:10448C000000000000000000000000000000000020
:04449C00000000001C
:0400000508000D6181
:00000001FF
